:020000040800F2
:1000000000500020B10C0008510C0008530C0008EF
:10001000550C0008570C0008590C0008000000009F
:100020000000000000000000000000005B0C000861
:100030005D0C0008000000005F0C0008610C000867
:10004000F90C0008F90C0008F90C0008F90C00087C
:10005000F90C0008F90C0008F90C0008F90C00086C
:10006000F90C0008F90C0008F90C0008F90C00085C
:10007000F90C0008F90C0008F90C0008F90C00084C
:10008000F90C0008F90C0008F90C0008F90C00083C
:10009000F90C0008F90C0008F90C0008F90C00082C
:1000A000F90C0008F90C0008F90C0008F90C00081C
:1000B000F90C0008F90C0008F90C0008F90C00080C
:1000C000F90C0008F90C0008F90C0008F90C0008FC
:1000D000F90C0008F90C0008F90C0008F90C0008EC
:1000E000F90C0008F90C0008F90C000800000000E9
:1000F0000000000000000000000000000000000000
:0C01000000000000000000005FF808F1A3
:10010C0010B5054C237833B9044B13B10448AFF345
:10011C0000800123237010BD0C00002000000000A3
:10012C00540D000808B5034B1BB103490348AFF34A
:10013C00008008BD0000000010000020540D0008D5
:10014C0038B50E4B054618784FF47A73B3FBF0F3C1
:10015C000B4A1068B0FBF3F000F080F8044658B975
:10016C000F2D09D8024629464FF0FF3000F042F817
:10017C00044B20461D6038BD012038BD0000002016
:10018C000800002004000020074A08B5136803206B
:10019C0043F01003136000F01BF80020FFF7D0FFB2
:1001AC0000F0F6FC002008BD00200240034A044B7E
:1001BC0011681B780B441360704700BF28000020A7
:1001CC0000000020014B1868704700BF2800002079
:1001DC00074A0002D36800F4E06023F4E0631B04D8
:1001EC001B0C43F0BF6343F400330343D3607047ED
:1001FC0000ED00E0174B30B5DC68C4F30224C4F109
:10020C000703251D042B28BF0423062D4FF00105E1
:10021C0098BF002405FA03F303F1FF3388BF033CB6
:10022C001940A14005FA04F4013C2240002842EA9E
:10023C0001024FEA0212A9BF00F16040064BD2B294
:10024C0000F56140BBBF00F00F00D2B280F8002374
:10025C001A5430BD00ED00E014ED00E00138B0F1AF
:10026C00807F0AD2F021064B064A586082F8231090
:10027C000020072298601A6070470120704700BF69
:10028C0010E000E000ED00E02DE9F74F00242646D9
:10029C00664BDFF8A8E1DFF8A8C10A6832FA06F568
:1002AC0002D103B0BDE8F08F4FF0010808FA06F850
:1002BC0002EA080290457FD14D68122D00F0AA8009
:1002CC0000F28380022D00F0A28077D8002D00F080
:1002DC008980012D00F099804FF00F09FF2A93BF00
:1002EC00824606F18045083DD0F800B092BFB500BB
:1002FC00D0F804B0AD0009FA05F82BEA080804FAA6
:10030C0005F588BF00F1040A48EA0505CAF8005053
:10031C00D1F804A01AF0805F4ED0454D444FAD6922
:10032C0026F0030845F00105BD61BD6908F1804860
:10033C0005F00105019508F5803806F0030B019DC9
:10034C004FEA8B0BD8F8085009FA0BF925EA090982
:10035C00384DA84263D005F58065A84261D005F5FB
:10036C008065A8425FD005F58065A8420CBF0325C7
:10037C00042505FA0BF545EA0905C8F808501D686F
:10038C001AF4803F14BF154395431D605D681AF441
:10039C00003F14BF154395435D609D681AF4801FA0
:1003AC0014BF154395439D60DD681AF4001F14BFFC
:1003BC002A4325EA0202DA6001366EE7032D22D0C9
:1003CC00112D89D1CC68043486E71B4FBD4209D06E
:1003DC0012D8DFF870904D4504D009F580394D45A1
:1003EC007FF47AAF8C68C4B1012C0CBFC0F81080BC
:1003FC00C0F8148008246FE77545F3D06545F1D03B
:10040C00DFF84490EBE7002466E7CC6864E7CC683F
:10041C00083461E7CC680C345EE704245CE7002503
:10042C00A7E70125A5E70225A3E700BF00040140CB
:10043C0000100240000801400000211000003110A3
:10044C000000321000001110000022100AB10161EE
:10045C0070470904FBE700002DE9F341054608B994
:10046C0001203CE00368DB0710D42B689F075DD4A8
:10047C002B68190700F194802B685A0700F1BE8095
:10048C00E869002840F02C81002028E08F4C63683C
:10049C0003F00C03042B07D0636803F00C03082B48
:1004AC0009D16368DE0306D523689C03DDD56B6830
:1004BC00002BDAD1D4E76B68B3F5803F12D12368F7
:1004CC0043F480332360FFF77DFE064623689803D0
:1004DC00CBD4FFF777FE801B6428F7D9032002B03A
:1004EC00BDE8F0819BB9236823F480332360236833
:1004FC0023F480232360FFF765FE064623689903E7
:10050C00B3D5FFF75FFE801B6428F7D9E6E7B3F598
:10051C00A02F236803D143F480232360CFE723F477
:10052C0080332360236823F48023CBE7674C636814
:10053C0013F00C0F07D0636803F00C03082B10D1D9
:10054C006368DA030DD423689B0702D52B69012B52
:10055C0086D123686A6923F0F80343EAC203236057
:10056C0086E72A695A4B6AB101221A60FFF72AFE04
:10057C00064623689F07ECD4FFF724FE801B022855
:10058C00F7D9ABE71A60FFF71DFE064623689807FC
:10059C007FF56EAFFFF716FE801B0228F6D99DE79C
:1005AC00AA694A4C4B4BDAB101221A60FFF70AFEDA
:1005BC000646636A9B070DD54FF4FA52464B1B68EF
:1005CC00B3FBF2F3019300BF019B5A1E0192002B67
:1005DC00F9D151E7FFF7F6FD801B0228E9D97DE739
:1005EC001A60FFF7EFFD0646636A9F077FF544AF7D
:1005FC00FFF7E8FD801B0228F6D96FE7334CE3695F
:10060C00D80024D40127E36943F08053E361E36904
:10061C0003F080530093009B304E3368D90518D5F6
:10062C00EB68012B26D1236A43F001032362FFF709
:10063C00C9FD41F288368046236A9B073FD5002FBF
:10064C003FF41EAFE36923F08053E36118E7002702
:10065C00E2E7336843F480733360FFF7B3FD804601
:10066C003368DA05DCD4FFF7ADFDA0EB0800642895
:10067C00F6D933E7ABB9236A41F2883823F001038A
:10068C002362236A23F004032362FFF79BFD0646D3
:10069C00236A9807D3D5FFF795FD801B4045F7D902
:1006AC001CE7052B236A03D143F004032362BAE74A
:1006BC0023F001032362236A23F00403B6E7FFF758
:1006CC0081FDA0EB0800B042B6D907E7001002404C
:1006DC0000004242800442420800002000700040AA
:1006EC002A4B5A681C4602F00C02082A3DD0002303
:1006FC00274E022833602BD1FFF764FD0746236891
:10070C0099011FD42B6AB3F5803F05D16268A968A3
:10071C0022F400320A436260696A62680B4322F475
:10072C0074121343636001233360FFF74BFD0546DE
:10073C0023689A013FF5A8AEFFF744FD401B022841
:10074C00F6D9CBE6FFF73EFDC01B0228D7D9C5E68C
:10075C00FFF738FD054623689B017FF595AEFFF743
:10076C0031FD401B0228F6D9B8E601283FF4B7AE9C
:10077C0058682B6A00F480329A427FF471AE6B6A2F
:10078C0000F47010C01A18BF0120A8E60010024037
:10079C006000424230B5194B87B002AC03F1100532
:1007AC00224618685968083303C2AB421446F7D185
:1007BC0001238DF80430022311498DF805304B6864
:1007CC0003F00C02082A17D1C3F3834206A8024493
:1007DC00DB0312F8102C0CD54B680A48C3F34043CA
:1007EC00504306AA134413F8143CB0FBF3F007B0C3
:1007FC0030BD05485043FAE70248F8E76C0D000895
:10080C000010024000127A0000093D002DE9F04171
:10081C000D46044610B90120BDE8F081454A136825
:10082C0003F007038B4229D321688E0731D4CA0702
:10083C0044D4404A136803F007039D4267D32268EF
:10084C003D4D12F0040F6ED1130706D56B6822696B
:10085C0023F4605343EAC2036B60FFF79BFF6B68A2
:10086C00364AC3F30313D35CD840354B1860354B71
:10087C001868FFF765FC0020BDE8F081136823F0D1
:10088C0007030B431360136803F007039942C2D1AB
:10089C00CAE7294B11F0040F1EBF5A6842F4E062FC
:1008AC005A60080742BF5A6842F460525A605A684C
:1008BC00A06822F0F00202435A60B8E762681E4E4C
:1008CC00012A33681BD113F4003FA4D0736841F2A2
:1008DC00883823F0030313437360FFF773FC074658
:1008EC007368626803F00C03B3EB820FA1D0FFF7BF
:1008FC0069FCC01B4045F3D90320BDE8F081022AF6
:10090C0002D113F0007FE0E713F0020FDDE713686C
:10091C0023F007032B431360136803F007039D4276
:10092C007FF479AF8BE76B68E16823F4E0630B43EA
:10093C006B6089E700200240001002407C0D00082B
:10094C000800002004000020044B054A5B68C3F338
:10095C000223D35C034A1068D84070470010024051
:10096C008C0D000808000020044B054A5B68C3F39B
:10097C00C223D35C034A1068D84070470010024071
:10098C008C0D00080800002038B505460368C168C6
:10099C001A69192422F440520A431A6182680069C8
:1009AC00D9680243686921F4B05121F00C0102436B
:1009BC000A43DA605A69A96922F440720A435A61FF
:1009CC000D4A934214D1FFF7CFFF60436C68642249
:1009DC00A400B0FBF4F0B0FBF2F402FB14031B0117
:1009EC003233B3FBF2F3296803EB04138B6038BD8D
:1009FC00FFF7AAFFE9E700BF0038014010B5044635
:100A0C0040B390F8393003F0FF021BB980F838205E
:100A1C0000F0E0F82423226884F83930D3682046AB
:100A2C0023F40053D360FFF7AFFF236800201A694B
:100A3C0022F490421A615A6922F02A025A61DA6849
:100A4C0042F40052DA602023E06384F8393084F8F1
:100A5C003A3010BD012010BD30B591B028220021D4
:100A6C0006A800F069F91422002101A800F064F92D
:100A7C001023022401250B934FF4201306A80F9387
:100A8C0006940A950D94FFF7E7FC0F234FF4806250
:100A9C0001930023294601A8029403930492059321
:100AAC00FFF7B4FE11B030BD00B589B0FFF76CFB99
:100ABC00FFF7D2FF102200210DEB020000F03CF9F1
:100ACC002D4B08219A692D4842F010029A619A69BF
:100ADC00002402F010020092009A9A69022542F05A
:100AEC0008029A619A69012602F008020192019AA1
:100AFC009A6942F004029A619A6902F00402029225
:100B0C00029A9A6942F020029A619B69002203F0D2
:100B1C0020030393039BFFF799FC00220221184842
:100B2C00FFF794FC4FF4005304A915480493059463
:100B3C000694FFF7A9FB082304A910480493059613
:100B4C0006940795FFF7A0FB0D4804A9049505969C
:100B5C0006940795FFF798FB0A480B4B0B4A8460E9
:100B6C0080E80C000C23C460046143618461C4619F
:100B7C00FFF744FFFEE700BF00100240000C0140ED
:100B8C00001001402C000020A06806000038014035
:100B9C000E4B82B09A6942F001029A619A6902F096
:100BAC0001020092009ADA6942F08052DA61DB6944
:100BBC00074A03F080530193019B536823F0E063D1
:100BCC0043F00073536002B0704700BF0010024046
:100BDC000000014010B5044686B01022002102A886
:100BEC0000F0AAF82268154B9A4225D103F5584318
:100BFC009A6902A942F480429A619A69104802F4F7
:100C0C0080420092009A9A6942F004029A619B69B0
:100C1C0003F004030193019B4FF480630293FFF7ED
:100C2C0033FB4FF40073029302230393032302A9B3
:100C3C0003480593FFF728FB06B010BD00380140B0
:100C4C00000801407047FEE7FEE7FEE7FEE770474D
:100C5C0070477047FFF7AABA0F4B1A6842F00102AF
:100C6C001A6059680D4A0A405A601A6822F0847258
:100C7C0022F480321A601A6822F480221A605A68B0
:100C8C0022F4FE025A604FF41F029A604FF0006289
:100C9C00034B9A60704700BF001002400000FFF841
:100CAC0000ED00E0002103E00B4B5B584350043196
:100CBC000A480B4B42189A42F6D30A4A02E0002328
:100CCC0042F8043B084B9A42F9D3FFF7C5FF00F0FA
:100CDC000FF8FFF7E9FE70479C0D0008000000209C
:100CEC000C0000200C0000206C000020FEE700002F
:100CFC0070B500250C4E0D4CA41BA410A54209D1B7
:100D0C0000F022F800250A4E0A4CA41BA410A542A0
:100D1C0005D170BD56F8253098470135EEE756F8E9
:100D2C00253098470135F2E7940D0008940D000822
:100D3C00940D0008980D000803460244934200D11C
:100D4C00704703F8011BF9E7F8B500BFF8BC08BC05
:100D5C009E467047F8B500BFF8BC08BC9E4670476D
:100D6C0002030405060708090A0B0C0D0E0F1010E0
:100D7C00000000000000000001020304060708093F
:080D8C00000000000102030455
:040D94003101000821
:040D98000D01000841
:0C0D9C0001000000100000000024F40022
:0400000508000CB132
:00000001FF
