:020000040800F2
:1000000000500020C91600084D1300084F130008C7
:100010005113000853130008551300080000000096
:10002000000000000000000000000000571300085E
:1000300059130008000000005B1300085D1300085E
:1000400011170008111700081117000811170008F0
:1000500011170008111700081117000811170008E0
:1000600011170008111700081117000811170008D0
:1000700011170008111700081117000811170008C0
:1000800011170008111700081117000811170008B0
:1000900011170008111700081117000811170008A0
:1000A0001117000811170008111700081117000890
:1000B0001117000811170008111700081117000880
:1000C0001117000811170008111700081117000870
:1000D0001117000811170008111700081117000860
:1000E0001117000811170008111700080000000080
:1000F0000000000000000000000000000000000000
:0C01000000000000000000005FF808F1A3
:10010C0010B5054C237833B9044B13B10448AFF345
:10011C0000800123237010BD10000020000000009F
:10012C006C17000808B5034B1BB103490348AFF328
:10013C00008008BD00000000140000206C170008AF
:10014C00D0400B1CD1409C46203AD340184352421D
:10015C0063469340184370477047000010B54FF04A
:10016C00FF320024044BDA601C61DA60DC60FFF7BC
:10017C00F3FF204610BD00BF0010024038B50E4BF7
:10018C00054618784FF47A73B3FBF0F30B4A1068FA
:10019C00B0FBF3F000F092F8044658B90F2D09D8D3
:1001AC00024629464FF0FF3000F054F8044B20462D
:1001BC001D6038BD012038BD000000200800002063
:1001CC0004000020074A08B51368032043F010030D
:1001DC00136000F02DF80020FFF7D0FF01F056F867
:1001EC00002008BD00200240034A044B11681B7814
:1001FC000B441360704700BF340000200000002047
:10020C00014B1868704700BF3400002038B5044615
:10021C00FFF7F6FF0546631C1EBF044B1B78E41862
:10022C00FFF7EEFF401B8442FAD838BD00000020D7
:10023C00074A0002D36800F4E06023F4E0631B0477
:10024C001B0C43F0BF6343F400330343D36070478C
:10025C0000ED00E0174B30B5DC68C4F30224C4F1A8
:10026C000703251D042B28BF0423062D4FF0010581
:10027C0098BF002405FA03F303F1FF3388BF033C56
:10028C001940A14005FA04F4013C2240002842EA3E
:10029C0001024FEA0212A9BF00F16040064BD2B234
:1002AC0000F56140BBBF00F00F00D2B280F8002314
:1002BC001A5430BD00ED00E014ED00E00138B0F14F
:1002CC00807F0AD2F021064B064A586082F8231030
:1002DC000020072298601A6070470120704700BF09
:1002EC0010E000E000ED00E090F82130022B06D089
:1002FC0004238363002380F82030012070470368B7
:10030C00C16B1A6822F00E021A601A6822F0010200
:10031C001A600122036C02FA03F34B60002380F88D
:10032C00212080F8203018467047806B7047000001
:10033C00114AD36813F0100305D01049CB6943F070
:10034C000203CB611023D268500706D50B4943F04A
:10035C000403CA6942F00102CA61074AD169C9079C
:10036C0008D50648C16941F00401C161D16921F089
:10037C000101D161D3607047002002403800002099
:10038C00064B186910F0800007D0054A5A6002F13C
:10039C0088325A601869C0F3C010704700200240C0
:1003AC0023016745034A0020136943F0800313615E
:1003BC00704700BF00200240F8B50646FFF720FF4B
:1003CC00114C07462546E368D80712D4E368990612
:1003DC0044BF2023E360EB68DA0606D4EB69DB0745
:1003EC0003D4E86810F0040002D0FFF7A1FF01204D
:1003FC00F8BD731CE7D00EB90320F8BDFFF700FF62
:10040C00C01B8642DFD2F7E7002002402DE9F84FEF
:10041C001F4C9946237E0546012B0F46904633D040
:10042C0001234CF250302376FFF7C6FF40BB012D61
:10043C0003D0022D0CBF022504250026B246DFF89E
:10044C0054B0320140464946FFF77AFEC4F81CA06E
:10045C00DBF8103080B243F00103CBF8103027F8F2
:10046C0016004CF25030FFF7A7FFDBF8103023F0EA
:10047C000103CBF8103018B90136F3B29D42E0D825
:10048C0000232376BDE8F88F0220BDE8F88F00BF6B
:10049C0038000020002002400022064BDA61064B97
:1004AC001A6942F004021A611A6942F040021A6198
:1004BC00704700BF38000020002002400022064B8D
:1004CC00DA61064B1A6942F002021A6158611A6924
:1004DC0042F040021A6170473800002000200240B0
:1004EC002DE9F041234D07462B7E8846012B3DD04C
:1004FC00012403682C76022B4CF2503013D1FFF7F9
:10050C005BFF20B1012000232B76BDE8F081FFF7C3
:10051C00C3FF4CF25030FFF74FFF174A136923F01B
:10052C0004031361EFE7FFF747FF0028EAD14FF010
:10053C00FF33C8F800302046BE680F4CFA68BB6821
:10054C0003EB82239E42DED23046FFF7B7FF4CF21C
:10055C005030FFF731FF236923F00203236110B100
:10056C00C8F80060CFE706F58066E7E70220BDE833
:10057C00F08100BF38000020002002402DE9F74F29
:10058C0000242646664BDFF8A8E1DFF8A8C10A680C
:10059C0032FA06F502D103B0BDE8F08F4FF0010836
:1005AC0008FA06F802EA080290457FD14D68122D30
:1005BC0000F0AA8000F28380022D00F0A28077D890
:1005CC00002D00F08980012D00F099804FF00F096B
:1005DC00FF2A93BF824606F18045083DD0F800B053
:1005EC0092BFB500D0F804B0AD0009FA05F82BEABB
:1005FC00080804FA05F588BF00F1040A48EA050565
:10060C00CAF80050D1F804A01AF0805F4ED0454DC6
:10061C00444FAD6926F0030845F00105BD61BD6985
:10062C0008F1804805F00105019508F5803806F0C1
:10063C00030B019D4FEA8B0BD8F8085009FA0BF904
:10064C0025EA0909384DA84263D005F58065A84212
:10065C0061D005F58065A8425FD005F58065A8429C
:10066C000CBF0325042505FA0BF545EA0905C8F866
:10067C0008501D681AF4803F14BF154395431D6044
:10068C005D681AF4003F14BF154395435D609D6887
:10069C001AF4801F14BF154395439D60DD681AF44E
:1006AC00001F14BF2A4325EA0202DA6001366EE706
:1006BC00032D22D0112D89D1CC68043486E71B4F31
:1006CC00BD4209D012D8DFF870904D4504D009F521
:1006DC0080394D457FF47AAF8C68C4B1012C0CBFC6
:1006EC00C0F81080C0F8148008246FE77545F3D06B
:1006FC006545F1D0DFF84490EBE7002466E7CC6861
:10070C0064E7CC68083461E7CC680C345EE70424F9
:10071C005CE70025A7E70125A5E70225A3E700BFB5
:10072C0000040140001002400008014000002110AC
:10073C0000003110000032100000111000002210D7
:10074C008368194214BF0120002070470AB101616F
:10075C0070470904FBE700002DE9F341054608B991
:10076C0001203CE00368DB0710D42B689F075DD4A5
:10077C002B68190700F194802B685A0700F1BE8092
:10078C00E869002840F02C81002028E08F4C636839
:10079C0003F00C03042B07D0636803F00C03082B45
:1007AC0009D16368DE0306D523689C03DDD56B682D
:1007BC00002BDAD1D4E76B68B3F5803F12D12368F4
:1007CC0043F480332360FFF71BFD06462368980330
:1007DC00CBD4FFF715FD801B6428F7D9032002B09A
:1007EC00BDE8F0819BB9236823F480332360236830
:1007FC0023F480232360FFF703FD06462368990347
:10080C00B3D5FFF7FDFC801B6428F7D9E6E7B3F5F9
:10081C00A02F236803D143F480232360CFE723F474
:10082C0080332360236823F48023CBE7674C636811
:10083C0013F00C0F07D0636803F00C03082B10D1D6
:10084C006368DA030DD423689B0702D52B69012B4F
:10085C0086D123686A6923F0F80343EAC203236054
:10086C0086E72A695A4B6AB101221A60FFF7C8FC65
:10087C00064623689F07ECD4FFF7C2FC801B0228B6
:10088C00F7D9ABE71A60FFF7BBFC0646236898075D
:10089C007FF56EAFFFF7B4FC801B0228F6D99DE7FD
:1008AC00AA694A4C4B4BDAB101221A60FFF7A8FC3B
:1008BC000646636A9B070DD54FF4FA52464B1B68EC
:1008CC00B3FBF2F3019300BF019B5A1E0192002B64
:1008DC00F9D151E7FFF794FC801B0228E9D97DE799
:1008EC001A60FFF78DFC0646636A9F077FF544AFDD
:1008FC00FFF786FC801B0228F6D96FE7334CE369BF
:10090C00D80024D40127E36943F08053E361E36901
:10091C0003F080530093009B304E3368D90518D5F3
:10092C00EB68012B26D1236A43F001032362FFF706
:10093C0067FC41F288368046236A9B073FD5002F1F
:10094C003FF41EAFE36923F08053E36118E70027FF
:10095C00E2E7336843F480733360FFF751FC804661
:10096C003368DA05DCD4FFF74BFCA0EB08006428F5
:10097C00F6D933E7ABB9236A41F2883823F0010387
:10098C002362236A23F004032362FFF739FC064633
:10099C00236A9807D3D5FFF733FC801B4045F7D962
:1009AC001CE7052B236A03D143F004032362BAE747
:1009BC0023F001032362236A23F00403B6E7FFF755
:1009CC001FFCA0EB0800B042B6D907E700100240AC
:1009DC0000004242800442420800002000700040A7
:1009EC002A4B5A681C4602F00C02082A3DD0002300
:1009FC00274E022833602BD1FFF702FC07462368F1
:100A0C0099011FD42B6AB3F5803F05D16268A968A0
:100A1C0022F400320A436260696A62680B4322F472
:100A2C0074121343636001233360FFF7E9FB05463F
:100A3C0023689A013FF5A8AEFFF7E2FB401B0228A2
:100A4C00F6D9CBE6FFF7DCFBC01B0228D7D9C5E6ED
:100A5C00FFF7D6FB054623689B017FF595AEFFF7A4
:100A6C00CFFB401B0228F6D9B8E601283FF4B7AEFD
:100A7C0058682B6A00F480329A427FF471AE6B6A2C
:100A8C0000F47010C01A18BF0120A8E60010024034
:100A9C006000424230B5194B87B002AC03F110052F
:100AAC00224618685968083303C2AB421446F7D182
:100ABC0001238DF80430022311498DF805304B6861
:100ACC0003F00C02082A17D1C3F3834206A8024490
:100ADC00DB0312F8102C0CD54B680A48C3F34043C7
:100AEC00504306AA134413F8143CB0FBF3F007B0C0
:100AFC0030BD05485043FAE70248F8E78417000870
:100B0C000010024000127A0000093D002DE9F0416E
:100B1C000D46044610B90120BDE8F081454A136822
:100B2C0003F007038B4229D321688E0731D4CA07FF
:100B3C0044D4404A136803F007039D4267D32268EC
:100B4C003D4D12F0040F6ED1130706D56B68226968
:100B5C0023F4605343EAC2036B60FFF79BFF6B689F
:100B6C00364AC3F30313D35CD840354B1860354B6E
:100B7C001868FFF703FB0020BDE8F081136823F031
:100B8C0007030B431360136803F007039942C2D1A8
:100B9C00CAE7294B11F0040F1EBF5A6842F4E062F9
:100BAC005A60080742BF5A6842F460525A605A6849
:100BBC00A06822F0F00202435A60B8E762681E4E49
:100BCC00012A33681BD113F4003FA4D0736841F29F
:100BDC00883823F0030313437360FFF711FB0746B8
:100BEC007368626803F00C03B3EB820FA1D0FFF7BC
:100BFC0007FBC01B4045F3D90320BDE8F081022A56
:100C0C0002D113F0007FE0E713F0020FDDE7136869
:100C1C0023F007032B431360136803F007039D4273
:100C2C007FF479AF8BE76B68E16823F4E0630B43E7
:100C3C006B6089E700200240001002401E1900087A
:100C4C000800002004000020044B054A5B68C3F335
:100C5C000223D35C034A1068D8407047001002404E
:100C6C002E19000808000020044B054A5B68C3F3EA
:100C7C00C223D35C034A1068D8407047001002406E
:100C8C002E1900080800002038B505460368C16815
:100C9C001A69192422F440520A431A6182680069C5
:100CAC00D9680243686921F4B05121F00C01024368
:100CBC000A43DA605A69A96922F440720A435A61FC
:100CCC000D4A934214D1FFF7CFFF60436C68642246
:100CDC00A400B0FBF4F0B0FBF2F402FB14031B0114
:100CEC003233B3FBF2F3296803EB04138B6038BD8A
:100CFC00FFF7AAFFE9E700BF00380140F8B504464A
:100D0C000E4617461D4621680B6836EA030301D1CF
:100D1C000020F8BD6B1CF7D095B923680320DA6866
:100D2C0022F4D072DA605A6922F001025A6120234F
:100D3C0084F8393084F83A30002384F83830F8BD20
:100D4C00FFF75EFAC01B8542DDD2E6E710B504461C
:100D5C0040B390F8393003F0FF021BB980F838200B
:100D6C0000F0B6FA2423226884F83930D368204680
:100D7C0023F40053D360FFF787FF236800201A6920
:100D8C0022F490421A615A6922F02A025A61DA68F6
:100D9C0042F40052DA602023E06384F8393084F89E
:100DAC003A3010BD012010BD2DE9F0411F4690F8DE
:100DBC0039300446202B0D4690464ED1002949D09F
:100DCC00002A47D090F83830012B46D0012380F808
:100DDC0038300023C363212380F83930FFF710FA31
:100DEC000646A4F82480A4F82680E38C9BB26BB949
:100DFC003B46324640212046FFF780FFA8B920230E
:100E0C0084F8380084F83930BDE8F081E38C324640
:100E1C00013B9BB2E384A3688021B3F5805F20463D
:100E2C003B460ED1FFF76AFF10B10320BDE8F081FD
:100E3C002B882268C3F308035360236943B9023536
:100E4C00D3E7FFF75BFF0028EFD123682A785A60BD
:100E5C000135CAE70120BDE8F0810220BDE8F08130
:100E6C002DE9F0411F4690F83A300446202B0D46F0
:100E7C00904651D100294CD0002A4AD090F83830F5
:100E8C00012B49D0012380F838300023C36322237F
:100E9C0080F83A30FFF7B4F90646A4F82C80A4F891
:100EAC002E80E08D80B230B9202384F8380084F88D
:100EBC003A30BDE8F081E38D3246013B9BB2E385CD
:100ECC00A3682021B3F5805F20463B4612D1FFF783
:100EDC0015FF10B10320BDE8F081236822695B681F
:100EEC0022B9C3F3080325F8023BDAE7DBB225F895
:100EFC00013BD6E7FFF702FF0028EBD123682169FD
:100F0C006A1C5B6811B92B701546CAE703F07F03A6
:100F1C00F9E70120BDE8F0810220BDE8F08103680B
:100F2C0010B5DA68044622F4F072DA605A6922F0DD
:100F3C0001025A615A69110613D55A69006B22F0E5
:100F4C0080025A6168B100234363FFF7CDF940B1C9
:100F5C00206BFFF7EAF9202803D110230320E36369
:100F6C0010BD23685A6952060FD55A69606B22F07E
:100F7C0040025A6148B100234363FFF7B5F920B131
:100F8C00606BFFF7D2F92028E7D000202023E08403
:100F9C00E085E06384F83A3084F8393010BD90F87D
:100FAC00392090F83A0010437047000010B586B015
:100FBC000446FFF7E5F90023019302930123039301
:100FCC00084B01A91B1B9B0A02A804940593FFF76D
:100FDC0087FA0446FFF7E6F9002C14BFFF20002027
:100FEC0006B010BDFFFF01082DE9F84300250646A9
:100FFC000F4690462C46FFF7C3F9DFF84490454561
:10100C0000D024B1FFF7CEF92046BDE8F8834E4559
:10101C0014D8234657F8252031460220FFF7F6F95D
:10102C00002818BF0224336857F8252004369A424A
:10103C001CBF44F00404E4B20135E0E70124FBE7F3
:10104C00EEFF0108064B10B51C68FFF787F8054B3F
:10105C001B6883F308882346BDE81040184700BF7F
:10106C00048000080080000830B591B028220021CF
:10107C0006A800F06DFB1422002101A800F068FB0B
:10108C001023022401250B934FF4201306A80F9371
:10109C0006940A950D94FFF75FFB0F234FF48062C3
:1010AC0001930023294601A802940393049205930B
:1010BC00FFF72CFD11B030BD2DE9F04188B004AD27
:1010CC00FFF780F8FFF7D0FF10220021284600F030
:1010DC003FFB5F4B08219A695E4842F010029A610F
:1010EC009A69002402F010020092009A9A69012673
:1010FC0042F008029A619A69022702F008020192F2
:10110C00019A9A694FF0080842F004029A619A69B0
:10111C0002F004020292029A9A6942F020029A6149
:10112C009B69002203F020030393039BFFF70EFB44
:10113C00002202214848FFF709FB4FF400532946CF
:10114C004548049305940694FFF718FA294641483C
:10115C000596CDF8108006940797FFF70FFA2946ED
:10116C003D480596049706940797FFF707FA3B4806
:10117C003B4A3C4B846080E80C000C23C460436108
:10118C0004618461C461FFF7E1FD224639463248AF
:10119C00FFF7DCFA324641462E48FFF7D7FA3248C1
:1011AC0000F01CF9314800F019F9314800F016F93B
:1011BC00304800F013F9304800F010F93246394647
:1011CC002548FFF7C3FA224641462248FFF7BEFAEC
:1011DC006420FFF71BF8324639461F48FFF7B6FA72
:1011EC00324641461B48FFF7B1FA0521284600F06C
:1011FC00D7F826462B5D0134622B08BF0126052C3F
:10120C00F8D1002202211448FFF7A0FA0821114856
:10121C000022FFF79BFA4FF400510F48FFF790FAAA
:10122C0068B9164800F0DAF8154D164C284600F04F
:10123C00D5F800F0BFF9204600F0D0F8F6E7002E04
:10124C00F2D1114800F0CAF8FFF7FCFEECE700BF42
:10125C0000100240000C014000100140580000201A
:10126C0000380140A068060094170008C317000856
:10127C00E917000816180008451800087818000827
:10128C00B1180008FE180008901800080E4B82B028
:10129C009A6942F001029A619A6902F00102009285
:1012AC00009ADA6942F08052DA61DB69074A03F08E
:1012BC0080530193019B536823F0E06343F0007368
:1012CC00536002B0704700BF0010024000000140A4
:1012DC0010B5044686B01022002102A800F038FA9E
:1012EC002268154B9A4225D103F558439A6902A9F5
:1012FC0042F480429A619A69104802F4804200924A
:10130C00009A9A6942F004029A619B6903F0040303
:10131C000193019B4FF480630293FFF72FF94FF475
:10132C000073029302230393032302A9034805933A
:10133C00FFF724F906B010BD003801400008014049
:10134C007047FEE7FEE7FEE7FEE770477047704721
:10135C00FEF74ABF0F4B1A6842F001021A60596837
:10136C000D4A0A405A601A6822F0847222F48032C4
:10137C001A601A6822F480221A605A6822F4FE025B
:10138C005A604FF41F029A604FF00062034B9A6050
:10139C00704700BF001002400000FFF800ED00E0B5
:1013AC0008B50A464FF47A7301460448FFF758FD16
:1013BC00002814BFFF20002008BD00BF58000020EB
:1013CC0008B513460A4601460348FFF749FD0028B5
:1013DC0014BFFF20002008BD5800002008B50146AE
:1013EC0000239AB2885C01330028FAD14FF47A7347
:1013FC000348FFF7D9FC002814BFFF20002008BDCC
:10140C005800002007B58DF807000B48FFF7C7FD03
:10141C00A02802D10848FFF782FD4FF47A7301220D
:10142C000DF107010448FFF7BFFC002814BFFF2093
:10143C00002003B05DF804FB580000202DE9F04FAC
:10144C000128ADF20C4D66D002280BBF4FF480661C
:10145C0000260025FF25341D214601A8FFF7A0FF1B
:10146C00052201AB1C4414F8028C14F8019C3F4C6F
:10147C0007462388B3FBF2F202EB82029B1A9BB263
:10148C00ABB9DFF800A102219AF800203848FFF729
:10149C005DF99AF80020082182F001023548FFF727
:1014AC0055F99AF8003083F001038AF8003023884C
:1014BC000DF10602013323809246002441F22100F3
:1014CC00B11C01AB19448A4228D1DFF8BCB09BF89F
:1014DC00003033B92848FFF769FD88BB01238BF82E
:1014EC000030A5BBAFBB254F9DF804303A789A422B
:1014FC0031D19DF805301344FF2B2CD149EA082833
:10150C00A0452AD11E4CB20851462068FFF76CFD4D
:10151C0028B3062516E0802600259CE712F8013B2F
:10152C0084EA0324082314F4004F4FEA4404A4B2C1
:10153C0003F1FF3318BF444013F0FF03F3D1C2E7AC
:10154C0045F0060528460DF20C4DBDE8F08FFF2541
:10155C00F8E70425F6E70225F4E70125F2E73B78E6
:10156C0001333B7023681E442660EBE72C000020FF
:10157C0000100140000C0140008000080C0000200D
:10158C00300000202E0000202F00002008B503782A
:10159C000133DBB2022B037007D91820FFF732FF9F
:1015AC001820FFF72FFFFF2008BD1520FFF72AFF9B
:1015BC00002008BD002301222DE9F341364C8DF8A3
:1015CC0005308DF806302370344B354D1A70354A82
:1015DC00354B364E364F1A609DF8053013B102B0BC
:1015EC00BDE8F08102A800F8013D4FF4FA72012128
:1015FC00FFF7E6FE8046A0B12378F3B94320FFF74E
:10160C0001FF2A7802213046FFF7A0F82A7808213A
:10161C0082F001023846FFF799F82B7883F001032A
:10162C002B709DF80700042829D00FD8431E012BDE
:10163C0012D9B8F1000FCFD11AE0012BF1D10DF175
:10164C000600FFF7A3FF8DF80500EAE71828F0D194
:10165C00FF238DF80530BFE7FFF7F0FE18B9062021
:10166C00FFF7D0FEB8E7062802D103238DF8063029
:10167C000DF10600FFF78AFF8DF80500ACE7062098
:10168C00FFF7C0FE0B48FFF7A9FE0B48FFF7A6FEBD
:10169C00FFF7D8FCA0E700BF2F0000200C000020B3
:1016AC002E000020008000083000002000100140B7
:1016BC00000C01403619000890180008002103E0C6
:1016CC000B4B5B58435004310A480B4B42189A425F
:1016DC00F6D30A4A02E0002342F8043B084B9A4234
:1016EC00F9D3FFF737FE00F00FF8FFF7E5FC704772
:1016FC0054190008000000201000002010000020E9
:10170C0098000020FEE7000070B500250C4E0D4C33
:10171C00A41BA410A54209D100F022F800250A4E02
:10172C000A4CA41BA410A54205D170BD56F8253057
:10173C0098470135EEE756F8253098470135F2E722
:10174C004C1900084C1900084C19000850190008D5
:10175C0003460244934200D1704703F8011BF9E79A
:10176C00F8B500BFF8BC08BC9E467047F8B500BF82
:08177C00F8BC08BC9E46704752
:1017840002030405060708090A0B0C0D0E0F1010BE
:101794000A0D3D3D3D3D3D3D3D3D3D3D3D3D3D3DD8
:1017A4003D3D3D3D3D3D3D3D3D3D3D3D3D3D3D3D65
:1017B4003D3D3D3D3D3D3D3D3D3D3D3D0A0D0055DD
:1017C40041525420426F6F746C6F6164657220667D
:1017D4006F7220457870726573734C52532052397E
:1017E4006D6D0A0D0068747470733A2F2F676974F5
:1017F4006875622E636F6D2F416C657373616E64DF
:10180400726F41552F457870726573734C52530A49
:101814000D003D3D3D3D3D3D3D3D3D3D3D3D3D3D61
:101824003D3D3D3D3D3D3D3D3D3D3D3D3D3D3D3DE4
:101834003D3D3D3D3D3D3D3D3D3D3D3D0A0D0A0D9A
:101844000053656E6420276227206F7220686F6CD6
:101854006420646F776E20627574746F6E20746F89
:1018640020626567696E20626F6F746C6F61646576
:10187400720A0D004465746563746564206275744E
:10188400746F6E2070726573730A0D004A756D7003
:10189400696E6720746F2075736572206170706C57
:1018A40069636174696F6E2E2E2E0A0D00506C658B
:1018B4006173652073656E642061206E65772062B4
:1018C400696E6172792066696C6520776974682035
:1018D400586D6F64656D2070726F746F636F6C20E8
:1018E400746F20757064617465207468652066691E
:1018F400726D776172652E0A0D000A0D4661696C7E
:1019040065642E2E2E20506C656173652074727987
:1019140020616761696E2E0A0D000000000000005E
:101924000000010203040607080900000000010288
:1019340003040A0D4669726D7761726520757064DF
:0819440061746564210A0D00C5
:04194C00310100085D
:041950000D0100087D
:1019540001000000100000000024F4000100000059
:04000005080016C910
:00000001FF
